S00E000049525F4C45442E7372656347
S113000019C028C027C026C025C024C023C022C0D0
S113001021C020C01FC01EC01DC01CC01CC01AC0EF
S113002019C018C017C016C015C014C013C012C020
S113003011C010C011241FBECFEFD4E0DEBFCDBF6E
S113004021E0A0E0B1E001C01D92AC39B207E1F7B4
S11300503BD14FC1D5CF1F920F920FB60F921124EF
S11300608F939F93EF93FF93E0910001F09101012F
S1130070EE5FFE4F808180FF06C0E0E8F0E0808103
S11300808068808305C0E0E8F0E080818F7780831A
S1130090E0910001F0910101EE5FFE4F80818695B1
S11300A096E4899F802D112487BD80910001909151
S11300B0010101969093010180930001E0910001F8
S11300C0F0910101EE5FFE4F808181110FC0E0E8E5
S11300D0F0E080818F778083EEE6F0E080818D7F91
S11300E0808310920101109200012998FF91EF91F1
S11300F09F918F910F900FBE0F901F90189582E0E3
S113010084BD85BD96E497BD219A2998809380008B
S113011089E1809381008AE190E090938700809345
S1130120860089E0809388000895FB01443068F0DC
S11301305BEA459F512D11245695952F990F950FE4
S1130140491B8170511106C016C0411123C0208182
S113015031811DC090E0682F6660A081B181AE5FDF
S1130160BE4F6C93208131812F5F3F4F31832083B9
S11301709F5F9513F2CF20813181440F842BD901E5
S1130180AE5FBE4F8C932F5F3F4F31832083822F0E
S1130190932F08958170EFCFCF93DF93EB018823E2
S11301A041F041E081E0C1DF43E0BE0180E0BDDF1A
S11301B007C041E081E0B9DF41E0BE0180E0B5DF86
S11301C088819981DF91CF910895CF92DF92EF9248
S11301D0FF920F931F93CF93DF9300D0CDB7DEB779
S11301E07C01D62E1A82198240E1BE016F5F7F4FD7
S11301F081E09BDF48E0BE016F5F7F4F80E095DFC9
S11302000FE010E0C701002E02C0959587950A946F
S1130210E2F7BE016F5F7F4F8170BEDF01501109AD
S113022088F707E010E0ED2CF12CC701002E02C086
S1130230959587950A94E2F7BE016F5F7F4F8170B1
S1130240ABDF0150110988F707E010E0E094F09467
S1130250C701002E02C0959587950A94E2F7BE0166
S11302606F5F7F4F817098DF0150110988F741E07B
S1130270BE016F5F7F4F81E058DF41E0BE016F5FD9
S11302807F4F80E052DF89819A818A39910564F435
S1130290FC01EE5FFE4F108201968A399105C1F789
S11302A08AE990E09A838983EEE6F0E080818260B7
S11302B080830F900F90DF91CF911F910F91FF904A
S11302C0EF90DF90CF9008958FEF8AB91BB884B96F
S11302D015B815DF789464E987EC91E276DF2FE9AD
S11302E086E891E0215080409040E1F700C0000092
S10902F0F2CFF894FFCFE9
S9030000FC
