S00E000049525F4C45442E7372656347
S113000019C028C027C026C025C024C023C022C0D0
S113001021C020C01FC01EC01DC01CC01CC01AC0EF
S113002019C018C017C016C015C014C013C012C020
S113003011C010C011241FBECFEFD4E0DEBFCDBF6E
S113004021E0A0E0B1E001C01D92AC39B207E1F7B4
S1130050DFD0F2C0D5CF1F920F920FB60F921124AA
S11300608F939F93EF93FF93E0910001F09101012F
S1130070EE5FFE4F8081882331F0E0E8F0E080817C
S11300808068808305C0E0E8F0E080818F7780831A
S11300908091000190910101019690930101809358
S11300A000018A3991054CF0EEE6F0E080818D7F05
S11300B0808310920101109200012998FF91EF9121
S11300C09F918F910F900FBE0F901F90189582E013
S11300D084BD85BD86E487BD219A299882E88093F2
S11300E0800089E1809381008AE190E09093870009
S11300F08093860089E0809388007894089588230B
S113010059F0FB01EE5FFE4F81E080831182128281
S113011013826C5F7F4F08C0FB01EE5FFE4F81E0EE
S1130120808311826E5F7F4F862F972F0895EF9201
S1130130FF920F931F93CF93DF938C01F62EE2E08F
S1130140F1E082E191E021E02193E817F907E1F77A
S113015010921201109213011092140110921501C1
S113016010921601109217011092180110921901A1
S1130170CFE0D0E068E170E0C8010C2E02C0959594
S113018087950A94E2F78170BADFBC012197A0F742
S1130190C7E0D0E00F2D10E07801C8010C2E02C09A
S11301A0959587950A94E2F78170A9DFBC012197A0
S11301B098F7C7E0D0E0E094F094C7010C2E02C099
S11301C0959587950A94E2F7817099DFBC01219790
S11301D0A0F7FB01EE5FFE4F81E080836F5F7F4FEE
S11301E06A3971054CF4FB01EE5FFE4F8CE991E036
S11301F01192E817F907E1F7EEE6F0E080818260FA
S11302008083DF91CF911F910F91FF90EF9008951C
S11302108FEF8AB91BB884B915B859DF64E987EC44
S113022091E285DF2FE382E49FE0215080409040FB
S10F0230E1F700C00000F2CFF894FFCF0B
S9030000FC
