S00E000049525F4C45442E7372656347
S113000019C028C027C026C025C024C023C022C0D0
S113001021C020C01FC01EC01DC01CC01CC01AC0EF
S113002019C018C017C016C015C014C013C012C020
S113003011C010C011241FBECFEFD4E0DEBFCDBF6E
S113004021E0A0E0B1E001C01D92AC39B207E1F7B4
S1130050D7D0EBC0D5CF1F920F920FB60F921124B9
S11300608F939F93EF93FF93E0910001F09101012F
S1130070EE5FFE4F808180FF06C0E0E8F0E0808103
S11300808068808305C0E0E8F0E080818F7780831A
S11300908091000190910101019690930101809358
S11300A00001E0910001F0910101EE5FFE4F8081BB
S11300B081110FC0E0E8F0E080818F778083EEE665
S11300C0F0E080818D7F8083109201011092000105
S11300D02998FF91EF919F918F910F900FBE0F90F0
S11300E01F90189582E084BD85BD96E497BD219A42
S11300F029988093800089E1809381008AE190E0CF
S1130100909387008093860089E080938800089507
S1130110862F972F411102C05F9808955F9A25E0BA
S1130120209302010895882341F041E081E0F0DF4B
S113013043E0BC0180E0ECDF089541E081E0E8DFCA
S113014041E0BC0180E0E4DF0895EF92FF920F9359
S11301501F93CF93DF938C01F62E40E160E070E0B3
S113016081E0D6DF48E0BC0180E0D2DFBC01CFE013
S1130170D0E0C8010C2E02C0959587950A94E2F749
S11301808170D1DFBC012197A0F7C7E0D0E00F2D2B
S113019010E07801C8010C2E02C0959587950A9449
S11301A0E2F78170C0DFBC01219798F7C7E0D0E087
S11301B0E094F094C7010C2E02C0959587950A949B
S11301C0E2F78170B0DFBC012197A0F741E081E044
S11301D09FDF8A39910544F4FC01EE5FFE4F1082E3
S11301E001968A399105C1F7EEE6F0E080818260DC
S11301F08083DF91CF911F910F91FF90EF9008952D
S11302008FEF8AB91BB884B915B86CDF789464E9A8
S113021087EC91E29ADF2FE382E49FE02150804053
S11102209040E1F700C00000F2CFF894FFCF49
S9030000FC
